{
  "_format": "hh-sol-artifact-1",
  "contractName": "SonicAccountFactory",
  "sourceName": "contracts/SonicAccountFactory.sol",
  "abi": [
    {
      "inputs": [
        {
          "internalType": "address",
          "name": "_implementation",
          "type": "address"
        },
        {
          "internalType": "address",
          "name": "_entryPoint",
          "type": "address"
        }
      ],
      "stateMutability": "nonpayable",
      "type": "constructor"
    },
    {
      "anonymous": false,
      "inputs": [
        {
          "indexed": true,
          "internalType": "address",
          "name": "previousOwner",
          "type": "address"
        },
        {
          "indexed": true,
          "internalType": "address",
          "name": "newOwner",
          "type": "address"
        }
      ],
      "name": "OwnershipTransferred",
      "type": "event"
    },
    {
      "anonymous": false,
      "inputs": [
        {
          "indexed": true,
          "internalType": "address",
          "name": "owner",
          "type": "address"
        },
        {
          "indexed": true,
          "internalType": "address",
          "name": "account",
          "type": "address"
        },
        {
          "indexed": true,
          "internalType": "address",
          "name": "entryPoint",
          "type": "address"
        }
      ],
      "name": "SonicAccountCreated",
      "type": "event"
    },
    {
      "inputs": [
        {
          "internalType": "address",
          "name": "ownerAddr",
          "type": "address"
        },
        {
          "internalType": "uint256",
          "name": "salt",
          "type": "uint256"
        }
      ],
      "name": "accountExists",
      "outputs": [
        {
          "internalType": "bool",
          "name": "",
          "type": "bool"
        }
      ],
      "stateMutability": "view",
      "type": "function"
    },
    {
      "inputs": [
        {
          "internalType": "address",
          "name": "ownerAddr",
          "type": "address"
        },
        {
          "internalType": "uint256",
          "name": "salt",
          "type": "uint256"
        }
      ],
      "name": "createAccount",
      "outputs": [
        {
          "internalType": "address",
          "name": "account",
          "type": "address"
        }
      ],
      "stateMutability": "nonpayable",
      "type": "function"
    },
    {
      "inputs": [],
      "name": "entryPoint",
      "outputs": [
        {
          "internalType": "address",
          "name": "",
          "type": "address"
        }
      ],
      "stateMutability": "view",
      "type": "function"
    },
    {
      "inputs": [
        {
          "internalType": "address",
          "name": "ownerAddr",
          "type": "address"
        },
        {
          "internalType": "uint256",
          "name": "salt",
          "type": "uint256"
        }
      ],
      "name": "getAddress",
      "outputs": [
        {
          "internalType": "address",
          "name": "",
          "type": "address"
        }
      ],
      "stateMutability": "view",
      "type": "function"
    },
    {
      "inputs": [
        {
          "internalType": "address",
          "name": "ownerAddr",
          "type": "address"
        }
      ],
      "name": "getAddress",
      "outputs": [
        {
          "internalType": "address",
          "name": "",
          "type": "address"
        }
      ],
      "stateMutability": "view",
      "type": "function"
    },
    {
      "inputs": [],
      "name": "owner",
      "outputs": [
        {
          "internalType": "address",
          "name": "",
          "type": "address"
        }
      ],
      "stateMutability": "view",
      "type": "function"
    },
    {
      "inputs": [],
      "name": "renounceOwnership",
      "outputs": [],
      "stateMutability": "nonpayable",
      "type": "function"
    },
    {
      "inputs": [
        {
          "internalType": "address",
          "name": "newEP",
          "type": "address"
        }
      ],
      "name": "setEntryPoint",
      "outputs": [],
      "stateMutability": "nonpayable",
      "type": "function"
    },
    {
      "inputs": [
        {
          "internalType": "address",
          "name": "newImpl",
          "type": "address"
        }
      ],
      "name": "setImplementation",
      "outputs": [],
      "stateMutability": "nonpayable",
      "type": "function"
    },
    {
      "inputs": [
        {
          "internalType": "address",
          "name": "ownerAddr",
          "type": "address"
        }
      ],
      "name": "sonicAccountBytecodeHash",
      "outputs": [
        {
          "internalType": "bytes32",
          "name": "",
          "type": "bytes32"
        }
      ],
      "stateMutability": "view",
      "type": "function"
    },
    {
      "inputs": [],
      "name": "sonicAccountImplementation",
      "outputs": [
        {
          "internalType": "address",
          "name": "",
          "type": "address"
        }
      ],
      "stateMutability": "view",
      "type": "function"
    },
    {
      "inputs": [
        {
          "internalType": "address",
          "name": "newOwner",
          "type": "address"
        }
      ],
      "name": "transferOwnership",
      "outputs": [],
      "stateMutability": "nonpayable",
      "type": "function"
    }
  ],
  "bytecode": "0x60803461015b57601f610e9238819003918201601f19168301916001600160401b0383118484101761016057808492604094855283398101031261015b57610052602061004b83610176565b9201610176565b60008054336001600160a01b0319808316821784556040519590946001600160a01b03949093859391908416907f8be0079c531659141344cd1fd0a4f28419497f9722a3daafe3b4186f6b6457e09080a3169384156101195750169182156100d4578160015416176001556002541617600255604051610d07908161018b8239f35b60405162461bcd60e51b815260206004820152601860248201527f466163746f72793a207a65726f20656e747279506f696e7400000000000000006044820152606490fd5b62461bcd60e51b815260206004820152601c60248201527f466163746f72793a207a65726f20696d706c656d656e746174696f6e000000006044820152606490fd5b600080fd5b634e487b7160e01b600052604160045260246000fd5b51906001600160a01b038216820361015b5756fe608060405260043610156200001357600080fd5b60003560e01c80632161bd3d14620000ef578063584465f214620000e95780635fbfb9cf14620000e35780636bebee3c14620000dd578063715018a614620000d757806376390db414620000d15780638cb84e1814620000cb5780638da5cb5b14620000c5578063ae22c57d14620000bf578063b0d691fe14620000b9578063d784d42614620000b35763f2fde38b14620000ad57600080fd5b6200054c565b620004f7565b620004cc565b62000400565b620003d5565b620003ac565b62000381565b6200031f565b620002dc565b620001b7565b62000162565b62000139565b600435906001600160a01b03821682036200010c57565b600080fd5b60409060031901126200010c576004356001600160a01b03811681036200010c579060243590565b346200010c57602062000157620001503662000111565b90620006e2565b3b1515604051908152f35b346200010c5760203660031901126200010c576200017f620000f5565b6200018962000616565b6001600160a01b03166200019f8115156200087e565b6001600160601b0360a01b6002541617600255600080f35b346200010c57620001c83662000111565b6001546001600160a01b03929190620001e59083908516620007b0565b906040516200022681620002176020820194878690916034926001600160601b03199060601b16825260148201520190565b03601f198101835282620006bf565b519020906020815191016000f59082821691821562000297576002546200029392906001600160a01b031693856040519687961692167fd751785b215af95e7c64ace493a6ff9f6ace773eb187c8ae3c25c85dea89fc9b600080a46001600160a01b031682526020820190565b0390f35b60405162461bcd60e51b815260206004820152601760248201527f466163746f72793a2063726561746532206661696c65640000000000000000006044820152606490fd5b346200010c5760203660031901126200010c57602062000311620002ff620000f5565b6001546001600160a01b0316620007b0565b818151910120604051908152f35b346200010c576000806003193601126200037e576200033d62000616565b80546001600160a01b03198116825581906001600160a01b03167f8be0079c531659141344cd1fd0a4f28419497f9722a3daafe3b4186f6b6457e08280a380f35b80fd5b346200010c5760003660031901126200010c576001546040516001600160a01b039091168152602090f35b346200010c576020620003c3620001503662000111565b6040516001600160a01b039091168152f35b346200010c5760003660031901126200010c576000546040516001600160a01b039091168152602090f35b346200010c5760203660031901126200010c5760206200041f620000f5565b620004c3620004b760018060a01b03926200043f818560015416620007b0565b85815191012090604051868101916001600160601b03199060601b16825260006034820152603481526200047381620006a2565b51902090604051908682019260ff60f81b84523060601b60218401526035830152605582015260558152620004a8816200066f565b5190206001600160a01b031690565b6001600160a01b031690565b60405191168152f35b346200010c5760003660031901126200010c576002546040516001600160a01b039091168152602090f35b346200010c5760203660031901126200010c5762000514620000f5565b6200051e62000616565b6001600160a01b0316620005348115156200087e565b6001600160601b0360a01b6001541617600155600080f35b346200010c5760203660031901126200010c5762000569620000f5565b6200057362000616565b6001600160a01b039081168015620005c257600080546001600160a01b03198116831782559092167f8be0079c531659141344cd1fd0a4f28419497f9722a3daafe3b4186f6b6457e08380a380f35b60405162461bcd60e51b815260206004820152602660248201527f4f776e61626c653a206e6577206f776e657220697320746865207a65726f206160448201526564647265737360d01b6064820152608490fd5b6000546001600160a01b031633036200062b57565b606460405162461bcd60e51b815260206004820152602060248201527f4f776e61626c653a2063616c6c6572206973206e6f7420746865206f776e65726044820152fd5b6080810190811067ffffffffffffffff8211176200068c57604052565b634e487b7160e01b600052604160045260246000fd5b6060810190811067ffffffffffffffff8211176200068c57604052565b90601f8019910116810190811067ffffffffffffffff8211176200068c57604052565b9060018060a01b0391620002176200073562000703838660015416620007b0565b602081519101209360405192839160208301958690916034926001600160601b03199060601b16825260148201520190565b5190209060405190602082019260ff60f81b84523060601b602184015260358301526055820152605581526200076b816200066f565b5190201690565b60005b838110620007865750506000910152565b818101518382015260200162000775565b90620007ac6020928281519485920162000772565b0190565b601f6200087b916200086e620008679460406200085860808251956020870163189acdbd60e31b815260018060a01b03809616602489015260248852620007f788620006a2565b620008406104169886519962000811602082018c620006bf565b808b52620008bc60208c0139865197889416602085015286808501525180928160608601528585019062000772565b881998899101168101036060810185520183620006bf565b51958693602085019062000797565b9062000797565b03908101835282620006bf565b90565b156200088657565b60405162461bcd60e51b815260206004820152600d60248201526c466163746f72793a207a65726f60981b6044820152606490fdfe604060808152610416908138038061001681610218565b93843982019181818403126102135780516001600160a01b038116808203610213576020838101516001600160401b0394919391858211610213570186601f820112156102135780519061007161006c83610253565b610218565b918083528583019886828401011161021357888661008f930161026e565b813b156101b9577f360894a13ba1a3210667c828492db98dca3e2076cc3735a920a3ca505d382bbc80546001600160a01b031916841790556000927fbc7cd75a20ee27fd9adebab32041f755214dbc6bffa90cc0225b39da2e5c2d3b8480a28051158015906101b2575b61010b575b855160d190816103458239f35b855194606086019081118682101761019e578697849283926101889952602788527f416464726573733a206c6f772d6c6576656c2064656c65676174652063616c6c87890152660819985a5b195960ca1b8a8901525190845af4913d15610194573d9061017a61006c83610253565b91825281943d92013e610291565b508038808080806100fe565b5060609250610291565b634e487b7160e01b84526041600452602484fd5b50826100f9565b855162461bcd60e51b815260048101859052602d60248201527f455243313936373a206e657720696d706c656d656e746174696f6e206973206e60448201526c1bdd08184818dbdb9d1c9858dd609a1b6064820152608490fd5b600080fd5b6040519190601f01601f191682016001600160401b0381118382101761023d57604052565b634e487b7160e01b600052604160045260246000fd5b6001600160401b03811161023d57601f01601f191660200190565b60005b8381106102815750506000910152565b8181015183820152602001610271565b919290156102f357508151156102a5575090565b3b156102ae5790565b60405162461bcd60e51b815260206004820152601d60248201527f416464726573733a2063616c6c20746f206e6f6e2d636f6e74726163740000006044820152606490fd5b8251909150156103065750805190602001fd5b6044604051809262461bcd60e51b825260206004830152610336815180928160248601526020868601910161026e565b601f01601f19168101030190fdfe608060405236156054577f360894a13ba1a3210667c828492db98dca3e2076cc3735a920a3ca505d382bbc54600090819081906001600160a01b0316368280378136915af43d82803e156050573d90f35b3d90fd5b7f360894a13ba1a3210667c828492db98dca3e2076cc3735a920a3ca505d382bbc54600090819081906001600160a01b0316368280378136915af43d82803e156050573d90f3fea264697066735822122069c7d1ca979011bc1308686ec4d4f064c7c4300fa16d725e55f26ce61f5fe9ea64736f6c63430008130033a2646970667358221220b4355533f0f10b4312fca6b275ce4474666b18f884aa9b6be1eb05d57a8e235d64736f6c63430008130033",
  "linkReferences": {},
  "deployedLinkReferences": {}
}