{
  "_format": "hh-sol-artifact-1",
  "contractName": "SonicPaymaster",
  "sourceName": "contracts/SonicPaymaster.sol",
  "abi": [
    {
      "inputs": [
        {
          "internalType": "contract IEntryPoint",
          "name": "_entryPoint",
          "type": "address"
        },
        {
          "internalType": "address",
          "name": "_authorizedSigner",
          "type": "address"
        }
      ],
      "stateMutability": "nonpayable",
      "type": "constructor"
    },
    {
      "anonymous": false,
      "inputs": [
        {
          "indexed": true,
          "internalType": "address",
          "name": "from",
          "type": "address"
        },
        {
          "indexed": false,
          "internalType": "uint256",
          "name": "amount",
          "type": "uint256"
        }
      ],
      "name": "Deposited",
      "type": "event"
    },
    {
      "anonymous": false,
      "inputs": [
        {
          "indexed": true,
          "internalType": "address",
          "name": "previousOwner",
          "type": "address"
        },
        {
          "indexed": true,
          "internalType": "address",
          "name": "newOwner",
          "type": "address"
        }
      ],
      "name": "OwnershipTransferred",
      "type": "event"
    },
    {
      "anonymous": false,
      "inputs": [
        {
          "indexed": true,
          "internalType": "address",
          "name": "oldSigner",
          "type": "address"
        },
        {
          "indexed": true,
          "internalType": "address",
          "name": "newSigner",
          "type": "address"
        }
      ],
      "name": "PaymasterAuthorizedSignerChanged",
      "type": "event"
    },
    {
      "anonymous": false,
      "inputs": [
        {
          "indexed": true,
          "internalType": "address",
          "name": "user",
          "type": "address"
        },
        {
          "indexed": false,
          "internalType": "bytes32",
          "name": "userOpHash",
          "type": "bytes32"
        },
        {
          "indexed": false,
          "internalType": "uint256",
          "name": "actualGasCost",
          "type": "uint256"
        }
      ],
      "name": "PaymasterPostOp",
      "type": "event"
    },
    {
      "anonymous": false,
      "inputs": [
        {
          "indexed": true,
          "internalType": "address",
          "name": "user",
          "type": "address"
        },
        {
          "indexed": false,
          "internalType": "bytes32",
          "name": "userOpHash",
          "type": "bytes32"
        },
        {
          "indexed": false,
          "internalType": "uint256",
          "name": "maxCost",
          "type": "uint256"
        }
      ],
      "name": "PaymasterValidated",
      "type": "event"
    },
    {
      "anonymous": false,
      "inputs": [
        {
          "indexed": true,
          "internalType": "address",
          "name": "to",
          "type": "address"
        },
        {
          "indexed": false,
          "internalType": "uint256",
          "name": "amount",
          "type": "uint256"
        }
      ],
      "name": "Withdrawn",
      "type": "event"
    },
    {
      "inputs": [],
      "name": "authorizedSigner",
      "outputs": [
        {
          "internalType": "address",
          "name": "",
          "type": "address"
        }
      ],
      "stateMutability": "view",
      "type": "function"
    },
    {
      "inputs": [],
      "name": "deposit",
      "outputs": [],
      "stateMutability": "payable",
      "type": "function"
    },
    {
      "inputs": [],
      "name": "entryPoint",
      "outputs": [
        {
          "internalType": "contract IEntryPoint",
          "name": "",
          "type": "address"
        }
      ],
      "stateMutability": "view",
      "type": "function"
    },
    {
      "inputs": [],
      "name": "getBalance",
      "outputs": [
        {
          "internalType": "uint256",
          "name": "",
          "type": "uint256"
        }
      ],
      "stateMutability": "view",
      "type": "function"
    },
    {
      "inputs": [],
      "name": "owner",
      "outputs": [
        {
          "internalType": "address",
          "name": "",
          "type": "address"
        }
      ],
      "stateMutability": "view",
      "type": "function"
    },
    {
      "inputs": [
        {
          "internalType": "address payable",
          "name": "to",
          "type": "address"
        },
        {
          "internalType": "uint256",
          "name": "amount",
          "type": "uint256"
        }
      ],
      "name": "ownerWithdraw",
      "outputs": [],
      "stateMutability": "nonpayable",
      "type": "function"
    },
    {
      "inputs": [
        {
          "internalType": "enum IPaymaster.PostOpMode",
          "name": "mode",
          "type": "uint8"
        },
        {
          "internalType": "bytes",
          "name": "context",
          "type": "bytes"
        },
        {
          "internalType": "uint256",
          "name": "actualGasCost",
          "type": "uint256"
        }
      ],
      "name": "postOp",
      "outputs": [],
      "stateMutability": "nonpayable",
      "type": "function"
    },
    {
      "inputs": [],
      "name": "renounceOwnership",
      "outputs": [],
      "stateMutability": "nonpayable",
      "type": "function"
    },
    {
      "inputs": [
        {
          "internalType": "address",
          "name": "newSigner",
          "type": "address"
        }
      ],
      "name": "setAuthorizedSigner",
      "outputs": [],
      "stateMutability": "nonpayable",
      "type": "function"
    },
    {
      "inputs": [
        {
          "internalType": "address",
          "name": "newOwner",
          "type": "address"
        }
      ],
      "name": "transferOwnership",
      "outputs": [],
      "stateMutability": "nonpayable",
      "type": "function"
    },
    {
      "inputs": [
        {
          "components": [
            {
              "internalType": "address",
              "name": "sender",
              "type": "address"
            },
            {
              "internalType": "uint256",
              "name": "nonce",
              "type": "uint256"
            },
            {
              "internalType": "bytes",
              "name": "initCode",
              "type": "bytes"
            },
            {
              "internalType": "bytes",
              "name": "callData",
              "type": "bytes"
            },
            {
              "internalType": "uint256",
              "name": "callGasLimit",
              "type": "uint256"
            },
            {
              "internalType": "uint256",
              "name": "verificationGasLimit",
              "type": "uint256"
            },
            {
              "internalType": "uint256",
              "name": "preVerificationGas",
              "type": "uint256"
            },
            {
              "internalType": "uint256",
              "name": "maxFeePerGas",
              "type": "uint256"
            },
            {
              "internalType": "uint256",
              "name": "maxPriorityFeePerGas",
              "type": "uint256"
            },
            {
              "internalType": "bytes",
              "name": "paymasterAndData",
              "type": "bytes"
            },
            {
              "internalType": "bytes",
              "name": "signature",
              "type": "bytes"
            }
          ],
          "internalType": "struct UserOperation",
          "name": "userOp",
          "type": "tuple"
        },
        {
          "internalType": "bytes32",
          "name": "userOpHash",
          "type": "bytes32"
        },
        {
          "internalType": "uint256",
          "name": "maxCost",
          "type": "uint256"
        }
      ],
      "name": "validatePaymasterUserOp",
      "outputs": [
        {
          "internalType": "bytes",
          "name": "context",
          "type": "bytes"
        },
        {
          "internalType": "uint256",
          "name": "validationData",
          "type": "uint256"
        }
      ],
      "stateMutability": "nonpayable",
      "type": "function"
    },
    {
      "inputs": [
        {
          "internalType": "address payable",
          "name": "target",
          "type": "address"
        },
        {
          "internalType": "uint256",
          "name": "amount",
          "type": "uint256"
        }
      ],
      "name": "withdrawTo",
      "outputs": [],
      "stateMutability": "nonpayable",
      "type": "function"
    },
    {
      "stateMutability": "payable",
      "type": "receive"
    }
  ],
  "bytecode": "0x60a03461012d57601f610ebd38819003918201601f19168301916001600160401b0383118484101761013257808492604094855283398101031261012d5780516001600160a01b038082169290919083820361012d5760200151908282169081830361012d5760005460018060a01b031995338783161760005560405191863391167f8be0079c531659141344cd1fd0a4f28419497f9722a3daafe3b4186f6b6457e0600080a3156100eb57506080526100e65750335b16906001541617600155604051610d749081610149823960805181818161011c01528181610789015261081f0152f35b6100b6565b62461bcd60e51b815260206004820152601a60248201527f5061796d61737465723a207a65726f20656e747279506f696e740000000000006044820152606490fd5b600080fd5b634e487b7160e01b600052604160045260246000fdfe608060408181526004918236101561004c575b509050361561002057600080fd5b513481527f2da466a7b24304f47e87fa2e1e5a81b9831ce54fec19055ce277ca2f39ba42c460203392a2005b600090813560e01c90816312065fe01461091857508063205c287814610623578063715018a6146108be5780638da5cb5b14610896578063a9a23409146107b8578063b0d691fe14610774578063c771909c1461074b578063d0e30db0146106c8578063d279b0ca14610657578063d9c88e1414610623578063f2fde38b1461055c5763f465c77e03610012573461055957606060031992818436011261055557843567ffffffffffffffff8082116105515761016082360396870112610551576001600160a01b0395610143337f0000000000000000000000000000000000000000000000000000000000000000891614610afd565b610124830135906022190181121561054d57820190878201359281841161054957602493803603858501136104a757601481106104fb5760148111156104ab57806014116104a75783019886858b019a85601319910301126104a75760788401358381116104a3578401998060578c0112156104a357908a9392916038850135906058826101d0816109dd565b976101dd8c51998a6109a5565b81895201011161049f5798809a9b8a6058999a9b60209a8b9301838901378601015260388501359485421161045d57605801359586421061041b5788519481359589810190878252888c820152898d820152308d1b60808201526074815260a0810181811088821117610409578c525190207f19457468657265756d205369676e6564204d6573736167653a0a3332000000008d52601c52603c8c2061028e9161028691610c77565b919091610b5d565b8c806001541691169081149081156103fc575b50156103ba5760443592834710610378579082918d9301916102c283610b49565b8b519e168a8f01528d8b018790528a8e528b8e019586118e8710176103675750509183916103148a947f86c3b03b2eabb55638e87ae0ae41a691a6faa47cedcac421276fa65bcdb76d98968652610b49565b1694825260808c0152a283519584875287518095880152805b858110610354575084870186015260a01b1790840152601f01601f19168201829003019150f35b888101850151888201880152840161032d565b634e487b7160e01b8d52604190528bfd5b895162461bcd60e51b81528084018a9052601d818401527f5061796d61737465723a20696e73756666696369656e742066756e64730000006044820152606490fd5b885162461bcd60e51b8152918201889052601c908201527f5061796d61737465723a20696e76616c6964207369676e6174757265000000006044820152606490fd5b90508c8c541614386102a1565b634e487b7160e01b8f5260418652848ffd5b885162461bcd60e51b8152918201889052601f908201527f5061796d61737465723a207065726d6974206e6f74207965742076616c6964006044820152606490fd5b885162461bcd60e51b81528083018990526019818901527f5061796d61737465723a207065726d69742065787069726564000000000000006044820152606490fd5b8980fd5b8880fd5b8780fd5b855162461bcd60e51b81526020818c01526025818701527f5061796d61737465723a207061796d6173746572416e644461746120746f6f206044820152641cda1bdc9d60da1b6064820152608490fd5b855162461bcd60e51b81526020818c01526023818701527f5061796d61737465723a207061796d6173746572416e6444617461206d697373604482015262696e6760e81b6064820152608490fd5b8680fd5b8580fd5b8480fd5b8280fd5b80fd5b50919034610555576020366003190112610555576001600160a01b038235818116939192908490036105515761059061094d565b83156105d157505082546001600160a01b0319811683178455167f8be0079c531659141344cd1fd0a4f28419497f9722a3daafe3b4186f6b6457e08380a380f35b906020608492519162461bcd60e51b8352820152602660248201527f4f776e61626c653a206e6577206f776e657220697320746865207a65726f206160448201526564647265737360d01b6064820152fd5b509034610653573660031901126105595761065061063f610932565b61064761094d565b602435906109f9565b80f35b5080fd5b50823461065357602036600319011261065357356001600160a01b03818116918290036105555761068661094d565b600154826bffffffffffffffffffffffff60a01b821617600155167f40ee941c3fcc5253faf934bb93314b32602f6f0aea412361c79c59d4fbd254f58380a380f35b5091826003193601126105555734156107095750513481527f2da466a7b24304f47e87fa2e1e5a81b9831ce54fec19055ce277ca2f39ba42c460203392a280f35b6020606492519162461bcd60e51b8352820152601760248201527f5061796d61737465723a207a65726f206465706f7369740000000000000000006044820152fd5b50903461065357816003193601126106535760015490516001600160a01b039091168152602090f35b509034610653578160031936011261065357517f00000000000000000000000000000000000000000000000000000000000000006001600160a01b03168152602090f35b50913461055557606036600319011261055557600381351015610555576024359067ffffffffffffffff9081831161055157366023840112156105515782013590811161089257810191366024840111610892576001600160a01b039281908390610846337f0000000000000000000000000000000000000000000000000000000000000000881614610afd565b0312610892576024820135928316809303610892577f6e7873ffbb10f3050459531c501c627e098868a2e82a3119f8194877efda7584916044825191013581526044356020820152a280f35b8380fd5b509034610653578160031936011261065357905490516001600160a01b039091168152602090f35b50346105595780600319360112610559576108d761094d565b80546001600160a01b03198116825581906001600160a01b03167f8be0079c531659141344cd1fd0a4f28419497f9722a3daafe3b4186f6b6457e08280a380f35b905034610653578160031936011261065357602090478152f35b600435906001600160a01b038216820361094857565b600080fd5b6000546001600160a01b0316330361096157565b606460405162461bcd60e51b815260206004820152602060248201527f4f776e61626c653a2063616c6c6572206973206e6f7420746865206f776e65726044820152fd5b90601f8019910116810190811067ffffffffffffffff8211176109c757604052565b634e487b7160e01b600052604160045260246000fd5b67ffffffffffffffff81116109c757601f01601f191660200190565b814710610ab8576001600160a01b031690600080808084865af13d15610ab3573d610a23816109dd565b90610a3160405192836109a5565b8152600060203d92013e5b15610a6e5760207f7084f5476618d8e60b11ef0d7d3f06914655adb8793e28ff7f018d4c76d505d591604051908152a2565b60405162461bcd60e51b815260206004820152601a60248201527f5061796d61737465723a207769746864726177206661696c65640000000000006044820152606490fd5b610a3c565b60405162461bcd60e51b815260206004820152601f60248201527f5061796d61737465723a20696e73756666696369656e742062616c616e6365006044820152606490fd5b15610b0457565b60405162461bcd60e51b815260206004820152601a60248201527f5061796d61737465723a206f6e6c7920456e747279506f696e740000000000006044820152606490fd5b356001600160a01b03811681036109485790565b6005811015610c615780610b6e5750565b60018103610bbb5760405162461bcd60e51b815260206004820152601860248201527f45434453413a20696e76616c6964207369676e617475726500000000000000006044820152606490fd5b60028103610c085760405162461bcd60e51b815260206004820152601f60248201527f45434453413a20696e76616c6964207369676e6174757265206c656e677468006044820152606490fd5b600314610c1157565b60405162461bcd60e51b815260206004820152602260248201527f45434453413a20696e76616c6964207369676e6174757265202773272076616c604482015261756560f01b6064820152608490fd5b634e487b7160e01b600052602160045260246000fd5b906041815114600014610ca557610ca1916020820151906060604084015193015160001a90610caf565b9091565b5050600090600290565b9291907f7fffffffffffffffffffffffffffffff5d576e7357a4501ddfe92f46681b20a08311610d325791608094939160ff602094604051948552168484015260408301526060820152600093849182805260015afa15610d255781516001600160a01b03811615610d1f579190565b50600190565b50604051903d90823e3d90fd5b5050505060009060039056fea26469706673582212201e41f0dc2d9df5fd7eb8c768bbfa583222b29ddb2a0dfc3af56a922adf83668764736f6c63430008130033",
  "linkReferences": {},
  "deployedLinkReferences": {}
}