{
  "_format": "hh-sol-artifact-1",
  "contractName": "SonicAccount",
  "sourceName": "contracts/SonicAccount.sol",
  "abi": [
    {
      "inputs": [
        {
          "internalType": "contract IEntryPoint",
          "name": "anEntryPoint",
          "type": "address"
        }
      ],
      "stateMutability": "nonpayable",
      "type": "constructor"
    },
    {
      "anonymous": false,
      "inputs": [
        {
          "indexed": false,
          "internalType": "uint8",
          "name": "version",
          "type": "uint8"
        }
      ],
      "name": "Initialized",
      "type": "event"
    },
    {
      "anonymous": false,
      "inputs": [
        {
          "indexed": true,
          "internalType": "address",
          "name": "owner",
          "type": "address"
        },
        {
          "indexed": true,
          "internalType": "address",
          "name": "entryPoint",
          "type": "address"
        }
      ],
      "name": "SonicAccountInitialized",
      "type": "event"
    },
    {
      "inputs": [],
      "name": "entryPoint",
      "outputs": [
        {
          "internalType": "contract IEntryPoint",
          "name": "",
          "type": "address"
        }
      ],
      "stateMutability": "view",
      "type": "function"
    },
    {
      "inputs": [
        {
          "internalType": "address",
          "name": "dest",
          "type": "address"
        },
        {
          "internalType": "uint256",
          "name": "value",
          "type": "uint256"
        },
        {
          "internalType": "bytes",
          "name": "func",
          "type": "bytes"
        }
      ],
      "name": "execute",
      "outputs": [],
      "stateMutability": "nonpayable",
      "type": "function"
    },
    {
      "inputs": [],
      "name": "getNonce",
      "outputs": [
        {
          "internalType": "uint256",
          "name": "",
          "type": "uint256"
        }
      ],
      "stateMutability": "view",
      "type": "function"
    },
    {
      "inputs": [
        {
          "internalType": "address",
          "name": "_owner",
          "type": "address"
        }
      ],
      "name": "initialize",
      "outputs": [],
      "stateMutability": "nonpayable",
      "type": "function"
    },
    {
      "inputs": [],
      "name": "owner",
      "outputs": [
        {
          "internalType": "address",
          "name": "",
          "type": "address"
        }
      ],
      "stateMutability": "view",
      "type": "function"
    },
    {
      "inputs": [
        {
          "components": [
            {
              "internalType": "address",
              "name": "sender",
              "type": "address"
            },
            {
              "internalType": "uint256",
              "name": "nonce",
              "type": "uint256"
            },
            {
              "internalType": "bytes",
              "name": "initCode",
              "type": "bytes"
            },
            {
              "internalType": "bytes",
              "name": "callData",
              "type": "bytes"
            },
            {
              "internalType": "uint256",
              "name": "callGasLimit",
              "type": "uint256"
            },
            {
              "internalType": "uint256",
              "name": "verificationGasLimit",
              "type": "uint256"
            },
            {
              "internalType": "uint256",
              "name": "preVerificationGas",
              "type": "uint256"
            },
            {
              "internalType": "uint256",
              "name": "maxFeePerGas",
              "type": "uint256"
            },
            {
              "internalType": "uint256",
              "name": "maxPriorityFeePerGas",
              "type": "uint256"
            },
            {
              "internalType": "bytes",
              "name": "paymasterAndData",
              "type": "bytes"
            },
            {
              "internalType": "bytes",
              "name": "signature",
              "type": "bytes"
            }
          ],
          "internalType": "struct UserOperation",
          "name": "userOp",
          "type": "tuple"
        },
        {
          "internalType": "bytes32",
          "name": "userOpHash",
          "type": "bytes32"
        },
        {
          "internalType": "uint256",
          "name": "missingAccountFunds",
          "type": "uint256"
        }
      ],
      "name": "validateUserOp",
      "outputs": [
        {
          "internalType": "uint256",
          "name": "validationData",
          "type": "uint256"
        }
      ],
      "stateMutability": "nonpayable",
      "type": "function"
    },
    {
      "stateMutability": "payable",
      "type": "receive"
    }
  ],
  "bytecode": "0x60a03461017957601f610aaa38819003918201601f19168301916001600160401b0383118484101761017e5780849260209460405283398101031261017957516001600160a01b03811680820361017957156101345760805260005460ff8160081c166100df5760ff808216036100a4575b6040516109159081610195823960805181818160a0015281816101b30152818161035d0152818161045a01526105010152f35b60ff90811916176000557f7f26b83ff96e1f2b6a682f133852f6798a09c465da95921460cefb3847402498602060405160ff8152a138610071565b60405162461bcd60e51b815260206004820152602760248201527f496e697469616c697a61626c653a20636f6e747261637420697320696e697469604482015266616c697a696e6760c81b6064820152608490fd5b60405162461bcd60e51b815260206004820152601660248201527f536f6e69633a207a65726f20656e747279506f696e74000000000000000000006044820152606490fd5b600080fd5b634e487b7160e01b600052604160045260246000fdfe6080604081815260049081361015610022575b505050361561002057600080fd5b005b600092833560e01c9081633a871cdd146104b9575080638da5cb5b1461048d578063b0d691fe14610445578063b61d27f61461030c578063c4d66de8146101275763d087d2880361001257346101115782600319360112610111578051631aab3f0d60e11b81523092810192909252602482018390526020826044817f00000000000000000000000000000000000000000000000000000000000000006001600160a01b03165afa91821561011d5783926100e2575b6020838351908152f35b9091506020813d8211610115575b816100fd6020938361067a565b8101031261011157602092505190386100d8565b8280fd5b3d91506100f0565b81513d85823e3d90fd5b5090346101115760203660031901126101115761014261065f565b90835460ff8160081c1615908180926102ff575b80156102e8575b1561028e5760ff19811660011786558161027d575b506001600160a01b03918383169081156102435750855462010000600160b01b0360109590951b9490941662010000600160b01b03198516811787559451927f000000000000000000000000000000000000000000000000000000000000000016907f82d97c0483f10ae1e2b23086825b9087094617c673ba3fd63fd477e377e324e78780a3610200578380f35b610100600160b01b03199091169091178255600181527f7f26b83ff96e1f2b6a682f133852f6798a09c465da95921460cefb384740249890602090a13880808380f35b606490602087519162461bcd60e51b8352820152601460248201527329b7b734b19d1024b73b30b634b21037bbb732b960611b6044820152fd5b61ffff191661010117855538610172565b845162461bcd60e51b8152602081850152602e60248201527f496e697469616c697a61626c653a20636f6e747261637420697320616c72656160448201526d191e481a5b9a5d1a585b1a5e995960921b6064820152608490fd5b50303b15801561015d5750600160ff82161461015d565b50600160ff821610610156565b50346101115760603660031901126101115761032661065f565b60443567ffffffffffffffff80821161044157366023830112156104415781850135908111610441573660248284010111610441577f00000000000000000000000000000000000000000000000000000000000000006001600160a01b031633036103fe57916024869392838594875193849301833781018481520391602435905af16103b16106ce565b50156103bb578280f35b906020606492519162461bcd60e51b8352820152601760248201527f536f6e69633a20457865637574696f6e206661696c65640000000000000000006044820152fd5b835162461bcd60e51b8152602081870152601a60248201527f536f6e69633a204e6f742066726f6d20456e747279506f696e740000000000006044820152606490fd5b8580fd5b838234610489578160031936011261048957517f00000000000000000000000000000000000000000000000000000000000000006001600160a01b03168152602090f35b5080fd5b8382346104895781600319360112610489579054905160109190911c6001600160a01b03168152602090f35b8491508334610111576003199160603684011261065b5781359267ffffffffffffffff90818511610441576101608536039182011261044157604435946001600160a01b03937f0000000000000000000000000000000000000000000000000000000000000000851633036106215750610144810135916022190182121561061d570190838201359081116104415760248201813603811361061d5761055e826106b2565b9261056b8951948561067a565b828452602483369201011161061d579186602083610598946105a097968386013783010152602435610818565b9290926106fe565b80855460101c169116036105da57509181836020946105c2575b505051908152f35b81808092335af1506105d26106ce565b5081846105ba565b606490602085519162461bcd60e51b8352820152601860248201527f536f6e69633a20496e76616c6964207369676e617475726500000000000000006044820152fd5b8680fd5b62461bcd60e51b8152602086820152601660248201527514dbdb9a58ce8813db9b1e48115b9d1c9e541bda5b9d60521b6044820152606490fd5b8380fd5b600435906001600160a01b038216820361067557565b600080fd5b90601f8019910116810190811067ffffffffffffffff82111761069c57604052565b634e487b7160e01b600052604160045260246000fd5b67ffffffffffffffff811161069c57601f01601f191660200190565b3d156106f9573d906106df826106b2565b916106ed604051938461067a565b82523d6000602084013e565b606090565b6005811015610802578061070f5750565b6001810361075c5760405162461bcd60e51b815260206004820152601860248201527f45434453413a20696e76616c6964207369676e617475726500000000000000006044820152606490fd5b600281036107a95760405162461bcd60e51b815260206004820152601f60248201527f45434453413a20696e76616c6964207369676e6174757265206c656e677468006044820152606490fd5b6003146107b257565b60405162461bcd60e51b815260206004820152602260248201527f45434453413a20696e76616c6964207369676e6174757265202773272076616c604482015261756560f01b6064820152608490fd5b634e487b7160e01b600052602160045260246000fd5b90604181511460001461084657610842916020820151906060604084015193015160001a90610850565b9091565b5050600090600290565b9291907f7fffffffffffffffffffffffffffffff5d576e7357a4501ddfe92f46681b20a083116108d35791608094939160ff602094604051948552168484015260408301526060820152600093849182805260015afa156108c65781516001600160a01b038116156108c0579190565b50600190565b50604051903d90823e3d90fd5b5050505060009060039056fea2646970667358221220246c9e394f3db671abe8f59870322639a97f595c7a1eb9ff1d5c17a2b03aa07664736f6c63430008130033",
  "linkReferences": {},
  "deployedLinkReferences": {}
}